{
  "_format": "hh-sol-artifact-1",
  "contractName": "gasChallenge",
  "sourceName": "contracts/gasChallenge.sol",
  "abi": [
    {
      "inputs": [],
      "name": "getSumOfArray",
      "outputs": [
        {
          "internalType": "uint256",
          "name": "",
          "type": "uint256"
        }
      ],
      "stateMutability": "view",
      "type": "function"
    },
    {
      "inputs": [],
      "name": "notOptimizedFunction",
      "outputs": [],
      "stateMutability": "nonpayable",
      "type": "function"
    },
    {
      "inputs": [],
      "name": "optimizedFunction",
      "outputs": [],
      "stateMutability": "nonpayable",
      "type": "function"
    }
  ],
  "bytecode": "0x608060405234801561001057600080fd5b50610287806100206000396000f3fe608060405234801561001057600080fd5b50600436106100415760003560e01c806368b5f223146100465780637ce418941461005057806380d2c8031461005a575b600080fd5b61004e610078565b005b6100586100b4565b005b6100626100f2565b60405161006f919061015c565b60405180910390f35b60005b600a8110156100b15760008082600a811061009957610098610177565b5b018190555080806100a9906101d5565b91505061007b565b50565b600080600a905060005b818110156100ed57600081600a81106100da576100d9610177565b5b01548301925080806001019150506100be565b505050565b6000806000905060005b600a81101561013b57600081600a811061011957610118610177565b5b015482610126919061021d565b91508080610133906101d5565b9150506100fc565b508091505090565b6000819050919050565b61015681610143565b82525050565b6000602082019050610171600083018461014d565b92915050565b7f4e487b7100000000000000000000000000000000000000000000000000000000600052603260045260246000fd5b7f4e487b7100000000000000000000000000000000000000000000000000000000600052601160045260246000fd5b60006101e082610143565b91507fffffffffffffffffffffffffffffffffffffffffffffffffffffffffffffffff8203610212576102116101a6565b5b600182019050919050565b600061022882610143565b915061023383610143565b925082820190508082111561024b5761024a6101a6565b5b9291505056fea26469706673582212205939d81ac7c93a85c9e6d736b5aafa8a1d06592ae53e9460a9cc5485e7afaef164736f6c63430008120033",
  "linkReferences": {},
  "deployedLinkReferences": {}
}